:1074000001C043C11F92CDB7DEB7112484B714BEAB
:1074100090E89093F20023E92093F20090936100AA
:1074200021E02093610096BF9CE496BF882371F011
:10743000982F9A70923051F081FF02C097EF94BF5D
:10744000282E80E00DD1E2E3FF27099485E08093A8
:10745000810082E08093C00088E18093C10086E0D3
:107460008093C20082E28093C4008DE0F9D0259A17
:1074700026E080E39CEF31E09093850080938400C8
:1074800036BBB09BFECF1D9AA8954091C00047FD2A
:1074900002C0215089F780E09AE3C92E63E0D62E1E
:1074A000BB24B39472E0A72EE4EA9E2EF2EA8F2E5C
:1074B0007C01CAD0813479F4C7D08983D7D089813F
:1074C000823811F481E005C0813811F488E001C0F0
:1074D00083E0B3D0AFC0823411F484E103C08534BB
:1074E00019F485E0CBD0A6C0853539F4ADD0482E4F
:1074F000ABD0582E440C551C9CC0863521F484E03A
:10750000BDD080E0E6CF843609F05DC09DD09CD030
:10751000682E9AD0782E00E011E096D0F801819381
:107520008F016E12FACFA2D041145104C1F4209100
:107530000201209304029091030190930502E092CE
:107540000201C0920301809166018093060280913E
:107550006701809307022093660190936701F5E429
:107560007F1201C0FFCFF201D0925700E89507B615
:1075700000FCFDCF80E090E011BCFC01F395208180
:1075800020BDB1BCFC01EF5FFE4F208120BDA1BC3E
:10759000FC01EE5FFE4F208120BDD1BCFC01ED5F00
:1075A000FE4F208120BD9C01240D351D232F332744
:1075B00022BD242D280F21BD9FBA8FBA0496803892
:1075C0009105D1F637C0843739F53ED03DD0782EBD
:1075D0003BD04CD08201740C0230110519F480911B
:1075E000040214C00330110519F4809105020EC085
:1075F0000636110519F48091060208C007361105F8
:1076000019F48091070202C0F801849116D00F5F2F
:107610001F4F7012E1CF0EC0853739F427D08EE1AD
:107620000CD085E90AD08FE054CF813511F488E081
:1076300017D01CD080E101D03CCF9091C00095FFC5
:10764000FCCF8093C60008958091C00087FFFCCFD7
:107650008091C00084FD01C0A8958091C600089566
:10766000E0E6F0E098E1908380830895EDDF8032DA
:1076700019F088E0F5DFFFCF84E1DFCFCF93C82F8B
:10768000E3DFC150E9F7CF91F1CFFC010A0167BFF9
:10769000E895112407B600FCFDCF667029F0452B54
:0A76A00019F481E187BFE895089511
:0277FE00010880
:040000030000740085
:00000001FF
